:100000000C9434000C9446000C9446000C9446006A
:100010000C9446000C9446000C9446000C94460048
:100020000C9446000C9446000C9446000C94460038
:100030000C9446000C9446000C9464000C9446000A
:100040000C9446000C9446000C9446000C94460018
:100050000C9446000C9446000C9446000C94460008
:100060000C9446000C94460011241FBECFEFD8E03C
:10007000DEBFCDBF21E0A0E0B1E001C01D92A43001
:10008000B207E1F70E9490000C94B4000C940000B9
:100090002FB7F894609100017091010180910201E5
:1000A000909103012FBF089516BC84B5826084BD72
:1000B00089EF87BD85B5836085BDEEE6F0E0808180
:1000C00082608083789408951F921FB61F92112436
:1000D0008F939F93AF93BF93809100019091010103
:1000E000A0910201B09103010196A11DB11D809361
:1000F000000190930101A0930201B0930301BF910D
:10010000AF919F918F911F901FBE1F90189580E413
:1001100080937C00EAE7F0E080818768808308951F
:1001200084B18C6384B90E945400C0E0E12CF12CAE
:1001300067010E9448006C197D098E099F096A3F7A
:10014000710581059105A8F385B1C11109C08C63C2
:1001500085B9C1E08AEFC80ED11CE11CF11CE9CFC2
:0C016000837C85B9C0E0F6CFF894FFCF97
:00000001FF
