:100000000C9434000C9446000C9446000C9446006A
:100010000C9446000C9446000C9446000C94460048
:100020000C9446000C9446000C9446000C94460038
:100030000C9446000C9446000C9464000C9446000A
:100040000C9446000C9446000C9446000C94460018
:100050000C9446000C9446000C9446000C94460008
:100060000C9446000C94460011241FBECFEFD8E03C
:10007000DEBFCDBF21E0A0E0B1E001C01D92A43001
:10008000B207E1F70E94BE000C94EB010C94000053
:100090002FB7F894609100017091010180910201E5
:1000A000909103012FBF089516BC84B5826084BD72
:1000B00089EF87BD85B5836085BDEEE6F0E0808180
:1000C00082608083789408951F921FB61F92112436
:1000D0008F939F93AF93BF93809100019091010103
:1000E000A0910201B09103010196A11DB11D809361
:1000F000000190930101A0930201B0930301BF910D
:10010000AF919F918F911F901FBE1F90189580E413
:1001100080937C0087E880937A00089580917A002C
:10012000806480937A0080917A0084FFFCCF2091D4
:1001300078003091790090917A00906190937A00E4
:10014000C901089528982BB12F732BB983309105DD
:1001500071F030F48130910531F0029731F008955B
:10016000049739F00895289A08955F9A08955E9A41
:100170000895289A8BB1806C8BB90895CDB7DEB7FE
:1001800061970FB6F894DEBF0FBECDBF84B18D630B
:1001900084B98AB1806C8AB98AB1837F8AB954984C
:1001A000219855988BB18C638BB9299A0E94540081
:1001B0000E94870029B122FB332731F988274B9908
:1001C0008395382B398B33244C993394D32CE12CE1
:1001D000F12CC12C270132011C861D861E861F862C
:1001E000212C188619861A861B861F824AEF4D839A
:1001F0001E8219821A821B821C8210E00E94480013
:100200004B015C0100274C990395301293C0CB0140
:10021000D5012C853D854E855F85821B930BA40BF4
:10022000B50B4497A105B105C8F0D016B9F0D02E92
:10023000011114C0D12CE114F10481F031E0232626
:1002400049B142FB552751F988274B998395582B83
:10025000598BC12C24013501D12C10E089B182FBCE
:10026000992791F988274B998395982B988B211082
:1002700098C0A989A11163C0913009F07BC01150C9
:1002800012300CF47DC02FEFE21AF20A35E0E316CB
:10029000F10408F07FC010E0C7010E94A200C40171
:1002A000D501288539854A855B85821B930BA40B74
:1002B000B50B4497A105B105A8F00E948E00969554
:1002C0008795969587954AE0489F9001499F300D04
:1002D0001124C90186509F4F8D839E8388869986FD
:1002E000AA86BB8629813A814B815C81821A930A56
:1002F000A40AB50A4D815E8184169506A104B10455
:10030000A8F089819A81AB81BC819A01820F931FE9
:10031000A11DB11D89839A83AB83BC833F8185B1C5
:10032000311155C08C6385B941E04F83302E588917
:10033000598B64CF6C879D868E87BF868FCFB98996
:10034000B13039F42889233009F499CFB889B1152F
:1003500013C03989333039F44889423009F48FCFDA
:10036000A889A13009C05889511509F488CF988906
:10037000933002C08889823009F082CF1F5F80CF1E
:100380001F3F0CF089CFE114F10439F041E0E41A89
:10039000F10881CFE12CF12C7ECF34E0E32EF12C5B
:1003A0007ACFC401D50184199509A609B7098A3FF6
:1003B0009105A105B10520F051E0C52624013501C4
:1003C00081E0C81609F468CF80E090E066CF837CB6
:0A03D00085B91F82ABCFF894FFCF70
:00000001FF
