:100000000C9434000C9446000C9446000C9446006A
:100010000C9446000C9446000C9446000C94460048
:100020000C9446000C9446000C9446000C94460038
:100030000C9446000C9446000C9464000C9446000A
:100040000C9446000C9446000C9446000C94460018
:100050000C9446000C9446000C9446000C94460008
:100060000C9446000C94460011241FBECFEFD8E03C
:10007000DEBFCDBF21E0A0E0B1E001C01D92A33101
:10008000B207E1F70E9494010C9418030C9400004D
:100090002FB7F894609100017091010180910201E5
:1000A000909103012FBF089516BC84B5826084BD72
:1000B00089EF87BD85B5836085BDEEE6F0E0808180
:1000C00082608083789408951F921FB61F92112436
:1000D0008F939F93AF93BF93809100019091010103
:1000E000A0910201B09103010196A11DB11D809361
:1000F000000190930101A0930201B0930301BF910D
:10010000AF919F918F911F901FBE1F90189580E413
:1001100080937C0087E880937A00089580917A002C
:10012000806480937A0080917A0084FFFCCF2091D4
:1001300078003091790090917A00906190937A00E4
:10014000C901089528982BB12F732BB983309105DD
:1001500071F030F48130910531F0029731F008955B
:10016000049739F00895289A08955F9A08955E9A41
:100170000895289A8BB1806C8BB9089580910601FF
:10018000813061F5809104019091050183309105E2
:10019000C1F030F48130910531F0029759F00895A3
:1001A0000497B1F00895109211011092120110926B
:1001B0000A01089510920F01109210011092090186
:1001C000089510920D0110920E01109208010895E9
:1001D00010920B0110920C011092070108952091CA
:1001E0000601213009F068C0809104019091050159
:1001F00083309105B1F130F48130910539F00297E7
:10020000D1F00895049709F442C008954091110176
:1002100050911201452B39F48093110190931201F2
:1002200020930A01089581E090910A01911180E0E4
:1002300080930A01089580910F0190911001892BFC
:1002400041F481E080930F01109210012093090185
:10025000089581E090910901911180E08093090156
:10026000089580910D0190910E01892B41F481E058
:1002700080930D0110920E0120930801089581E0F2
:1002800090910801911180E0809308010895809178
:100290000B0190910C01892B41F481E080930B01BB
:1002A00010920C0120930701089581E090910701BD
:1002B000911180E080930701089595B1937C95B9E1
:1002C0002091110130911201232BF9F4813009F4AE
:1002D0002D9A20910F0130911001232BD1F4813000
:1002E00009F42B9A20910D0130910E01232BA9F4D2
:1002F000813009F42C9A20910B0130910C01232BB1
:1003000081F4813009F42A9A089590910A0191307C
:10031000DECF909109019130E3CF909108019130A7
:10032000E8CF80910701EDCFCDB7DEB76A970FB662
:10033000F894DEBF0FBECDBF84B18D6384B98AB19E
:10034000806C8AB98AB1837F8AB95498219855986C
:100350008BB18C638BB9299A0E9454000E9487004C
:1003600029B122FB332731F988274B998395382B04
:10037000398FBB244C99B394AA241999A39433249C
:100380004D993394232CA8869B2C1D8A1E8A1F8A84
:10039000188E198A1A8A1B8A1C8A812C612C712C4E
:1003A00023011D861E861F86188A19861A861B86BB
:1003B0001C861F824AEF4D831E8219821A821B827D
:1003C0001C8210E00E9448006B017C0100274C99C0
:1003D0000395B01290C0CB01D7012D853E854F8586
:1003E0005889821B930BA40BB50B4497A105B1054B
:1003F00008F19016F9F0902E01111CC080910401B3
:1004000090910501912C892BA9F081E09091060132
:10041000911180E08093060139B132FB442741F904
:1004200088274B998395482B498F812C26013701CA
:10043000912C10E0BB241999B394AB1061C0C60194
:10044000D70129893A894B895C89821B930BA40BBC
:10045000B50B4497A105B10540F038853B1529F04F
:10046000B11053C00E94EF001886AA244D99A3949E
:100470003A104DC0C601D7012D893E894F89588D4C
:10048000821B930BA40BB50B4497A105B10540F05B
:100490002A1431F02A2CA11003C00E94BE00212C86
:1004A00039B132FB442741F988274B998395482B72
:1004B0004A8F80910601811156C0598D51112CC06F
:1004C000413009F041C01150809104019091050123
:1004D00012300CF43FC001968530910510F080E099
:1004E00090E0809304019093050110E08091040155
:1004F000909105014AC06D87DE868F87F88A9ACF72
:10050000C98ADA8AEB8AFC8AB0CFB886AECFCD8AA8
:10051000DE8AEF8AF88EC4CF898D813031F49A8DCE
:10052000933089F28A8D811511C0A98DA33031F4E1
:10053000BA8DB23041F25A8D513008C02A8D211542
:1005400011F24A8D433002C03A8D323009F0BCCFEF
:100550001F5FBACF1F3F54F6009711F00197C1CF2C
:1005600084E090E0BECFC601D70184199509A609A1
:10057000B7098A3F9105A105B10508F054C0A1E073
:1005800080E090E08A1609F4B1CF0E94A200C60173
:10059000D70129853A854B855C85821B930BA40B7B
:1005A000B50B4497A105B105A8F00E948E00969561
:1005B0008795969587954AE0489F9001499F300D11
:1005C0001124C90186509F4F8D839E83C986DA8688
:1005D000EB86FC8629813A814B815C81C21AD30A61
:1005E000E40AF50A4D815E81C416D506E104F104E2
:1005F00088F089819A81AB81BC819A01820F931F17
:10060000A11DB11D89839A83AB83BC833F8141E0E7
:1006100034273F838F810E945D013A2CAB2CB02E92
:100620005A8D598FCFCE91E0892626013701A7CF69
:04063000F894FFCF6C
:00000001FF
