:100000000C9434000C9446000C9446000C9446006A
:100010000C9446000C9446000C9446000C94460048
:100020000C9446000C9446000C9446000C94460038
:100030000C9446000C9446000C9464000C9446000A
:100040000C9446000C9446000C9446000C94460018
:100050000C9446000C9446000C9446000C94460008
:100060000C9446000C94460011241FBECFEFD8E03C
:10007000DEBFCDBF21E0A0E0B1E001C01D92A43001
:10008000B207E1F70E94BE000C9437010C94000007
:100090002FB7F894609100017091010180910201E5
:1000A000909103012FBF089516BC84B5826084BD72
:1000B00089EF87BD85B5836085BDEEE6F0E0808180
:1000C00082608083789408951F921FB61F92112436
:1000D0008F939F93AF93BF93809100019091010103
:1000E000A0910201B09103010196A11DB11D809361
:1000F000000190930101A0930201B0930301BF910D
:10010000AF919F918F911F901FBE1F90189580E413
:1001100080937C0087E880937A00089580917A002C
:10012000806480937A0080917A0084FFFCCF2091D4
:1001300078003091790090917A00906190937A00E4
:10014000C901089528982BB12F732BB983309105DD
:1001500071F030F48130910531F0029731F008955B
:10016000049739F00895289A08955F9A08955E9A41
:100170000895289A8BB1806C8BB9089500D00F92A6
:10018000CDB7DEB784B18D6384B98AB1806C8AB98A
:100190008AB1837E8AB90E9454000E94870022247B
:1001A0004A99239400E010E02801320119822AEFD5
:1001B0002A831B82420152010E9448006B017C018C
:1001C00033244A99339489B1231449F0311439F016
:1001D00083FD3DC00F5F1F4F05301105F0F5C801CD
:1001E0000E94A200C601D70184199509A609B70982
:1001F0004497A105B10590F00E948E0096958795D1
:10020000969587954AE0489F9001499F300D1124AB
:1002100026503F4F2A833B8326013701C818D9084F
:10022000EA08FB088A819B81C816D906E104F1041B
:1002300060F0880E991EA11CB11C998185B19111A5
:1002400012C08C6385B921E02983232CB5CF011519
:10025000110531F001501109C2CF00E010E0BFCF0D
:1002600004E010E0BCCF837C85B91982EECFF8940E
:02027000FFCFBE
:00000001FF
