:100000000C9434000C9446000C9446000C9446006A
:100010000C9446000C9446000C9446000C94460048
:100020000C9446000C9446000C9446000C94460038
:100030000C9446000C9446000C9464000C9446000A
:100040000C9446000C9446000C9446000C94460018
:100050000C9446000C9446000C9446000C94460008
:100060000C9446000C94460011241FBECFEFD8E03C
:10007000DEBFCDBF21E0A0E0B1E001C01D92A43001
:10008000B207E1F70E94A2000C94E7000C94000074
:100090002FB7F894609100017091010180910201E5
:1000A000909103012FBF089516BC84B5826084BD72
:1000B00089EF87BD85B5836085BDEEE6F0E0808180
:1000C00082608083789408951F921FB61F92112436
:1000D0008F939F93AF93BF93809100019091010103
:1000E000A0910201B09103010196A11DB11D809361
:1000F000000190930101A0930201B0930301BF910D
:10010000AF919F918F911F901FBE1F90189580E413
:1001100080937C0087E880937A00089580917A002C
:10012000806480937A0080917A0084FFFCCF2091D4
:1001300078003091790090917A00906190937A00E4
:10014000C901089584B18C6384B90E9454000E944F
:100150008700612C712C230110E0CAEFD0E042012E
:1001600052010AE00E9448006B017C01CB01D701DB
:1001700084199509A609B7094497A105B10578F036
:100180000E948E009695879596958795089FE00129
:10019000099FD00D1124C650DF4F26013701C81822
:1001A000D908EA08FB08CC16DD06E104F104D0F218
:1001B0008C0E9D1EA11CB11C85B1111104C08C6355
:1001C00085B911E0CFCF837C85B910E0CBCFF8940F
:0201D000FFCF5F
:00000001FF
